{
  "_format": "hh-sol-artifact-1",
  "contractName": "IdentityNFT",
  "sourceName": "contracts/IdentityNFT.sol",
  "abi": [
    {
      "inputs": [],
      "stateMutability": "nonpayable",
      "type": "constructor"
    },
    {
      "inputs": [],
      "name": "ERC721EnumerableForbiddenBatchMint",
      "type": "error"
    },
    {
      "inputs": [
        {
          "internalType": "address",
          "name": "sender",
          "type": "address"
        },
        {
          "internalType": "uint256",
          "name": "tokenId",
          "type": "uint256"
        },
        {
          "internalType": "address",
          "name": "owner",
          "type": "address"
        }
      ],
      "name": "ERC721IncorrectOwner",
      "type": "error"
    },
    {
      "inputs": [
        {
          "internalType": "address",
          "name": "operator",
          "type": "address"
        },
        {
          "internalType": "uint256",
          "name": "tokenId",
          "type": "uint256"
        }
      ],
      "name": "ERC721InsufficientApproval",
      "type": "error"
    },
    {
      "inputs": [
        {
          "internalType": "address",
          "name": "approver",
          "type": "address"
        }
      ],
      "name": "ERC721InvalidApprover",
      "type": "error"
    },
    {
      "inputs": [
        {
          "internalType": "address",
          "name": "operator",
          "type": "address"
        }
      ],
      "name": "ERC721InvalidOperator",
      "type": "error"
    },
    {
      "inputs": [
        {
          "internalType": "address",
          "name": "owner",
          "type": "address"
        }
      ],
      "name": "ERC721InvalidOwner",
      "type": "error"
    },
    {
      "inputs": [
        {
          "internalType": "address",
          "name": "receiver",
          "type": "address"
        }
      ],
      "name": "ERC721InvalidReceiver",
      "type": "error"
    },
    {
      "inputs": [
        {
          "internalType": "address",
          "name": "sender",
          "type": "address"
        }
      ],
      "name": "ERC721InvalidSender",
      "type": "error"
    },
    {
      "inputs": [
        {
          "internalType": "uint256",
          "name": "tokenId",
          "type": "uint256"
        }
      ],
      "name": "ERC721NonexistentToken",
      "type": "error"
    },
    {
      "inputs": [
        {
          "internalType": "address",
          "name": "owner",
          "type": "address"
        },
        {
          "internalType": "uint256",
          "name": "index",
          "type": "uint256"
        }
      ],
      "name": "ERC721OutOfBoundsIndex",
      "type": "error"
    },
    {
      "inputs": [
        {
          "internalType": "address",
          "name": "owner",
          "type": "address"
        }
      ],
      "name": "OwnableInvalidOwner",
      "type": "error"
    },
    {
      "inputs": [
        {
          "internalType": "address",
          "name": "account",
          "type": "address"
        }
      ],
      "name": "OwnableUnauthorizedAccount",
      "type": "error"
    },
    {
      "anonymous": false,
      "inputs": [
        {
          "indexed": true,
          "internalType": "address",
          "name": "owner",
          "type": "address"
        },
        {
          "indexed": true,
          "internalType": "address",
          "name": "approved",
          "type": "address"
        },
        {
          "indexed": true,
          "internalType": "uint256",
          "name": "tokenId",
          "type": "uint256"
        }
      ],
      "name": "Approval",
      "type": "event"
    },
    {
      "anonymous": false,
      "inputs": [
        {
          "indexed": true,
          "internalType": "address",
          "name": "owner",
          "type": "address"
        },
        {
          "indexed": true,
          "internalType": "address",
          "name": "operator",
          "type": "address"
        },
        {
          "indexed": false,
          "internalType": "bool",
          "name": "approved",
          "type": "bool"
        }
      ],
      "name": "ApprovalForAll",
      "type": "event"
    },
    {
      "anonymous": false,
      "inputs": [
        {
          "indexed": false,
          "internalType": "uint256",
          "name": "_fromTokenId",
          "type": "uint256"
        },
        {
          "indexed": false,
          "internalType": "uint256",
          "name": "_toTokenId",
          "type": "uint256"
        }
      ],
      "name": "BatchMetadataUpdate",
      "type": "event"
    },
    {
      "anonymous": false,
      "inputs": [
        {
          "indexed": false,
          "internalType": "uint256",
          "name": "_tokenId",
          "type": "uint256"
        }
      ],
      "name": "MetadataUpdate",
      "type": "event"
    },
    {
      "anonymous": false,
      "inputs": [
        {
          "indexed": true,
          "internalType": "address",
          "name": "previousOwner",
          "type": "address"
        },
        {
          "indexed": true,
          "internalType": "address",
          "name": "newOwner",
          "type": "address"
        }
      ],
      "name": "OwnershipTransferred",
      "type": "event"
    },
    {
      "anonymous": false,
      "inputs": [
        {
          "indexed": true,
          "internalType": "address",
          "name": "from",
          "type": "address"
        },
        {
          "indexed": true,
          "internalType": "address",
          "name": "to",
          "type": "address"
        },
        {
          "indexed": true,
          "internalType": "uint256",
          "name": "tokenId",
          "type": "uint256"
        }
      ],
      "name": "Transfer",
      "type": "event"
    },
    {
      "inputs": [
        {
          "internalType": "address",
          "name": "to",
          "type": "address"
        },
        {
          "internalType": "uint256",
          "name": "tokenId",
          "type": "uint256"
        }
      ],
      "name": "approve",
      "outputs": [],
      "stateMutability": "nonpayable",
      "type": "function"
    },
    {
      "inputs": [
        {
          "internalType": "address",
          "name": "owner",
          "type": "address"
        }
      ],
      "name": "balanceOf",
      "outputs": [
        {
          "internalType": "uint256",
          "name": "",
          "type": "uint256"
        }
      ],
      "stateMutability": "view",
      "type": "function"
    },
    {
      "inputs": [
        {
          "internalType": "uint256",
          "name": "tokenId",
          "type": "uint256"
        }
      ],
      "name": "burn",
      "outputs": [],
      "stateMutability": "nonpayable",
      "type": "function"
    },
    {
      "inputs": [
        {
          "internalType": "uint256",
          "name": "tokenId",
          "type": "uint256"
        }
      ],
      "name": "getApproved",
      "outputs": [
        {
          "internalType": "address",
          "name": "",
          "type": "address"
        }
      ],
      "stateMutability": "view",
      "type": "function"
    },
    {
      "inputs": [
        {
          "internalType": "uint256",
          "name": "",
          "type": "uint256"
        }
      ],
      "name": "isActive",
      "outputs": [
        {
          "internalType": "bool",
          "name": "",
          "type": "bool"
        }
      ],
      "stateMutability": "view",
      "type": "function"
    },
    {
      "inputs": [
        {
          "internalType": "address",
          "name": "owner",
          "type": "address"
        },
        {
          "internalType": "address",
          "name": "operator",
          "type": "address"
        }
      ],
      "name": "isApprovedForAll",
      "outputs": [
        {
          "internalType": "bool",
          "name": "",
          "type": "bool"
        }
      ],
      "stateMutability": "view",
      "type": "function"
    },
    {
      "inputs": [
        {
          "internalType": "address",
          "name": "to",
          "type": "address"
        },
        {
          "internalType": "string",
          "name": "role",
          "type": "string"
        },
        {
          "internalType": "string",
          "name": "uri",
          "type": "string"
        }
      ],
      "name": "mintIdentity",
      "outputs": [],
      "stateMutability": "nonpayable",
      "type": "function"
    },
    {
      "inputs": [],
      "name": "name",
      "outputs": [
        {
          "internalType": "string",
          "name": "",
          "type": "string"
        }
      ],
      "stateMutability": "view",
      "type": "function"
    },
    {
      "inputs": [],
      "name": "owner",
      "outputs": [
        {
          "internalType": "address",
          "name": "",
          "type": "address"
        }
      ],
      "stateMutability": "view",
      "type": "function"
    },
    {
      "inputs": [
        {
          "internalType": "uint256",
          "name": "tokenId",
          "type": "uint256"
        }
      ],
      "name": "ownerOf",
      "outputs": [
        {
          "internalType": "address",
          "name": "",
          "type": "address"
        }
      ],
      "stateMutability": "view",
      "type": "function"
    },
    {
      "inputs": [],
      "name": "renounceOwnership",
      "outputs": [],
      "stateMutability": "nonpayable",
      "type": "function"
    },
    {
      "inputs": [
        {
          "internalType": "uint256",
          "name": "",
          "type": "uint256"
        }
      ],
      "name": "roles",
      "outputs": [
        {
          "internalType": "string",
          "name": "",
          "type": "string"
        }
      ],
      "stateMutability": "view",
      "type": "function"
    },
    {
      "inputs": [
        {
          "internalType": "address",
          "name": "from",
          "type": "address"
        },
        {
          "internalType": "address",
          "name": "to",
          "type": "address"
        },
        {
          "internalType": "uint256",
          "name": "tokenId",
          "type": "uint256"
        }
      ],
      "name": "safeTransferFrom",
      "outputs": [],
      "stateMutability": "nonpayable",
      "type": "function"
    },
    {
      "inputs": [
        {
          "internalType": "address",
          "name": "from",
          "type": "address"
        },
        {
          "internalType": "address",
          "name": "to",
          "type": "address"
        },
        {
          "internalType": "uint256",
          "name": "tokenId",
          "type": "uint256"
        },
        {
          "internalType": "bytes",
          "name": "data",
          "type": "bytes"
        }
      ],
      "name": "safeTransferFrom",
      "outputs": [],
      "stateMutability": "nonpayable",
      "type": "function"
    },
    {
      "inputs": [
        {
          "internalType": "uint256",
          "name": "tokenId",
          "type": "uint256"
        },
        {
          "internalType": "bool",
          "name": "active",
          "type": "bool"
        }
      ],
      "name": "setActive",
      "outputs": [],
      "stateMutability": "nonpayable",
      "type": "function"
    },
    {
      "inputs": [
        {
          "internalType": "address",
          "name": "operator",
          "type": "address"
        },
        {
          "internalType": "bool",
          "name": "approved",
          "type": "bool"
        }
      ],
      "name": "setApprovalForAll",
      "outputs": [],
      "stateMutability": "nonpayable",
      "type": "function"
    },
    {
      "inputs": [
        {
          "internalType": "uint256",
          "name": "tokenId",
          "type": "uint256"
        },
        {
          "internalType": "string",
          "name": "newRole",
          "type": "string"
        }
      ],
      "name": "setRole",
      "outputs": [],
      "stateMutability": "nonpayable",
      "type": "function"
    },
    {
      "inputs": [
        {
          "internalType": "uint256",
          "name": "tokenId",
          "type": "uint256"
        },
        {
          "internalType": "string",
          "name": "uri",
          "type": "string"
        }
      ],
      "name": "setTokenURI",
      "outputs": [],
      "stateMutability": "nonpayable",
      "type": "function"
    },
    {
      "inputs": [
        {
          "internalType": "bytes4",
          "name": "interfaceId",
          "type": "bytes4"
        }
      ],
      "name": "supportsInterface",
      "outputs": [
        {
          "internalType": "bool",
          "name": "",
          "type": "bool"
        }
      ],
      "stateMutability": "view",
      "type": "function"
    },
    {
      "inputs": [],
      "name": "symbol",
      "outputs": [
        {
          "internalType": "string",
          "name": "",
          "type": "string"
        }
      ],
      "stateMutability": "view",
      "type": "function"
    },
    {
      "inputs": [
        {
          "internalType": "uint256",
          "name": "index",
          "type": "uint256"
        }
      ],
      "name": "tokenByIndex",
      "outputs": [
        {
          "internalType": "uint256",
          "name": "",
          "type": "uint256"
        }
      ],
      "stateMutability": "view",
      "type": "function"
    },
    {
      "inputs": [
        {
          "internalType": "address",
          "name": "owner",
          "type": "address"
        },
        {
          "internalType": "uint256",
          "name": "index",
          "type": "uint256"
        }
      ],
      "name": "tokenOfOwnerByIndex",
      "outputs": [
        {
          "internalType": "uint256",
          "name": "",
          "type": "uint256"
        }
      ],
      "stateMutability": "view",
      "type": "function"
    },
    {
      "inputs": [
        {
          "internalType": "uint256",
          "name": "tokenId",
          "type": "uint256"
        }
      ],
      "name": "tokenURI",
      "outputs": [
        {
          "internalType": "string",
          "name": "",
          "type": "string"
        }
      ],
      "stateMutability": "view",
      "type": "function"
    },
    {
      "inputs": [],
      "name": "totalSupply",
      "outputs": [
        {
          "internalType": "uint256",
          "name": "",
          "type": "uint256"
        }
      ],
      "stateMutability": "view",
      "type": "function"
    },
    {
      "inputs": [
        {
          "internalType": "address",
          "name": "from",
          "type": "address"
        },
        {
          "internalType": "address",
          "name": "to",
          "type": "address"
        },
        {
          "internalType": "uint256",
          "name": "tokenId",
          "type": "uint256"
        }
      ],
      "name": "transferFrom",
      "outputs": [],
      "stateMutability": "nonpayable",
      "type": "function"
    },
    {
      "inputs": [
        {
          "internalType": "address",
          "name": "newOwner",
          "type": "address"
        }
      ],
      "name": "transferOwnership",
      "outputs": [],
      "stateMutability": "nonpayable",
      "type": "function"
    }
  ],
  "bytecode": "0x60806040526001600c5534801561001557600080fd5b50336040518060400160405280600b81526020017f4964656e746974794e46540000000000000000000000000000000000000000008152506040518060400160405280600581526020017f49444e465400000000000000000000000000000000000000000000000000000081525081600090816100929190610442565b5080600190816100a29190610442565b505050600073ffffffffffffffffffffffffffffffffffffffff168173ffffffffffffffffffffffffffffffffffffffff16036101175760006040517f1e4fbdf700000000000000000000000000000000000000000000000000000000815260040161010e9190610555565b60405180910390fd5b6101268161012c60201b60201c565b50610570565b6000600b60009054906101000a900473ffffffffffffffffffffffffffffffffffffffff16905081600b60006101000a81548173ffffffffffffffffffffffffffffffffffffffff021916908373ffffffffffffffffffffffffffffffffffffffff1602179055508173ffffffffffffffffffffffffffffffffffffffff168173ffffffffffffffffffffffffffffffffffffffff167f8be0079c531659141344cd1fd0a4f28419497f9722a3daafe3b4186f6b6457e060405160405180910390a35050565b600081519050919050565b7f4e487b7100000000000000000000000000000000000000000000000000000000600052604160045260246000fd5b7f4e487b7100000000000000000000000000000000000000000000000000000000600052602260045260246000fd5b6000600282049050600182168061027357607f821691505b6020821081036102865761028561022c565b5b50919050565b60008190508160005260206000209050919050565b60006020601f8301049050919050565b600082821b905092915050565b6000600883026102ee7fffffffffffffffffffffffffffffffffffffffffffffffffffffffffffffffff826102b1565b6102f886836102b1565b95508019841693508086168417925050509392505050565b6000819050919050565b6000819050919050565b600061033f61033a61033584610310565b61031a565b610310565b9050919050565b6000819050919050565b61035983610324565b61036d61036582610346565b8484546102be565b825550505050565b600090565b610382610375565b61038d818484610350565b505050565b5b818110156103b1576103a660008261037a565b600181019050610393565b5050565b601f8211156103f6576103c78161028c565b6103d0846102a1565b810160208510156103df578190505b6103f36103eb856102a1565b830182610392565b50505b505050565b600082821c905092915050565b6000610419600019846008026103fb565b1980831691505092915050565b60006104328383610408565b9150826002028217905092915050565b61044b826101f2565b67ffffffffffffffff811115610464576104636101fd565b5b61046e825461025b565b6104798282856103b5565b600060209050601f8311600181146104ac576000841561049a578287015190505b6104a48582610426565b86555061050c565b601f1984166104ba8661028c565b60005b828110156104e2578489015182556001820191506020850194506020810190506104bd565b868310156104ff57848901516104fb601f891682610408565b8355505b6001600288020188555050505b505050505050565b600073ffffffffffffffffffffffffffffffffffffffff82169050919050565b600061053f82610514565b9050919050565b61054f81610534565b82525050565b600060208201905061056a6000830184610546565b92915050565b6133a28061057f6000396000f3fe608060405234801561001057600080fd5b506004361061018e5760003560e01c8063715018a6116100de578063b1945a4911610097578063c87b56dd11610071578063c87b56dd14610491578063e60a955d146104c1578063e985e9c5146104dd578063f2fde38b1461050d5761018e565b8063b1945a4914610429578063b88d4fde14610445578063bfda4a49146104615761018e565b8063715018a61461037b57806382afd23b146103855780638d57ba79146103b55780638da5cb5b146103d157806395d89b41146103ef578063a22cb4651461040d5761018e565b806323b872dd1161014b57806342966c681161012557806342966c68146102cf5780634f6ccce7146102eb5780636352211e1461031b57806370a082311461034b5761018e565b806323b872dd146102675780632f745c591461028357806342842e0e146102b35761018e565b806301ffc9a71461019357806306fdde03146101c3578063081812fc146101e1578063095ea7b314610211578063162094c41461022d57806318160ddd14610249575b600080fd5b6101ad60048036038101906101a8919061259f565b610529565b6040516101ba91906125e7565b60405180910390f35b6101cb61053b565b6040516101d89190612692565b60405180910390f35b6101fb60048036038101906101f691906126ea565b6105cd565b6040516102089190612758565b60405180910390f35b61022b6004803603810190610226919061279f565b6105e9565b005b61024760048036038101906102429190612914565b6105ff565b005b610251610615565b60405161025e919061297f565b60405180910390f35b610281600480360381019061027c919061299a565b610622565b005b61029d6004803603810190610298919061279f565b610724565b6040516102aa919061297f565b60405180910390f35b6102cd60048036038101906102c8919061299a565b6107cd565b005b6102e960048036038101906102e491906126ea565b6107ed565b005b610305600480360381019061030091906126ea565b610843565b604051610312919061297f565b60405180910390f35b610335600480360381019061033091906126ea565b6108b9565b6040516103429190612758565b60405180910390f35b610365600480360381019061036091906129ed565b6108cb565b604051610372919061297f565b60405180910390f35b610383610985565b005b61039f600480360381019061039a91906126ea565b610999565b6040516103ac91906125e7565b60405180910390f35b6103cf60048036038101906103ca9190612a1a565b6109b9565b005b6103d9610a92565b6040516103e69190612758565b60405180910390f35b6103f7610abc565b6040516104049190612692565b60405180910390f35b61042760048036038101906104229190612ad1565b610b4e565b005b610443600480360381019061043e9190612914565b610b64565b005b61045f600480360381019061045a9190612bb2565b610b91565b005b61047b600480360381019061047691906126ea565b610bb6565b6040516104889190612692565b60405180910390f35b6104ab60048036038101906104a691906126ea565b610c56565b6040516104b89190612692565b60405180910390f35b6104db60048036038101906104d69190612c35565b610c68565b005b6104f760048036038101906104f29190612c75565b610c9f565b60405161050491906125e7565b60405180910390f35b610527600480360381019061052291906129ed565b610d33565b005b600061053482610db9565b9050919050565b60606000805461054a90612ce4565b80601f016020809104026020016040519081016040528092919081815260200182805461057690612ce4565b80156105c35780601f10610598576101008083540402835291602001916105c3565b820191906000526020600020905b8154815290600101906020018083116105a657829003601f168201915b5050505050905090565b60006105d882610e33565b506105e282610ebb565b9050919050565b6105fb82826105f6610ef8565b610f00565b5050565b610607610f12565b6106118282610f99565b5050565b6000600980549050905090565b600073ffffffffffffffffffffffffffffffffffffffff168273ffffffffffffffffffffffffffffffffffffffff16036106945760006040517f64a0ae9200000000000000000000000000000000000000000000000000000000815260040161068b9190612758565b60405180910390fd5b60006106a883836106a3610ef8565b610ff5565b90508373ffffffffffffffffffffffffffffffffffffffff168173ffffffffffffffffffffffffffffffffffffffff161461071e578382826040517f64283d7b00000000000000000000000000000000000000000000000000000000815260040161071593929190612d15565b60405180910390fd5b50505050565b600061072f836108cb565b82106107745782826040517fa57d13dc00000000000000000000000000000000000000000000000000000000815260040161076b929190612d4c565b60405180910390fd5b600760008473ffffffffffffffffffffffffffffffffffffffff1673ffffffffffffffffffffffffffffffffffffffff168152602001908152602001600020600083815260200190815260200160002054905092915050565b6107e883838360405180602001604052806000815250610b91565b505050565b6107f5610f12565b6107fe816110c2565b600d6000828152602001908152602001600020600061081d91906124d6565b600e600082815260200190815260200160002060006101000a81549060ff021916905550565b600061084d610615565b8210610893576000826040517fa57d13dc00000000000000000000000000000000000000000000000000000000815260040161088a929190612d4c565b60405180910390fd5b600982815481106108a7576108a6612d75565b5b90600052602060002001549050919050565b60006108c482610e33565b9050919050565b60008073ffffffffffffffffffffffffffffffffffffffff168273ffffffffffffffffffffffffffffffffffffffff160361093e5760006040517f89c62b640000000000000000000000000000000000000000000000000000000081526004016109359190612758565b60405180910390fd5b600360008373ffffffffffffffffffffffffffffffffffffffff1673ffffffffffffffffffffffffffffffffffffffff168152602001908152602001600020549050919050565b61098d610f12565b6109976000611148565b565b600e6020528060005260406000206000915054906101000a900460ff1681565b6109c1610f12565b60006109cc846108cb565b14610a0c576040517f08c379a0000000000000000000000000000000000000000000000000000000008152600401610a0390612df0565b60405180910390fd5b6000600c549050600c6000815480929190610a2690612e3f565b9190505550610a35848261120e565b610a3f8183610f99565b82600d60008381526020019081526020016000209081610a5f9190613033565b506001600e600083815260200190815260200160002060006101000a81548160ff02191690831515021790555050505050565b6000600b60009054906101000a900473ffffffffffffffffffffffffffffffffffffffff16905090565b606060018054610acb90612ce4565b80601f0160208091040260200160405190810160405280929190818152602001828054610af790612ce4565b8015610b445780601f10610b1957610100808354040283529160200191610b44565b820191906000526020600020905b815481529060010190602001808311610b2757829003601f168201915b5050505050905090565b610b60610b59610ef8565b8383611307565b5050565b610b6c610f12565b80600d60008481526020019081526020016000209081610b8c9190613033565b505050565b610b9c848484610622565b610bb0610ba7610ef8565b85858585611476565b50505050565b600d6020528060005260406000206000915090508054610bd590612ce4565b80601f0160208091040260200160405190810160405280929190818152602001828054610c0190612ce4565b8015610c4e5780601f10610c2357610100808354040283529160200191610c4e565b820191906000526020600020905b815481529060010190602001808311610c3157829003601f168201915b505050505081565b6060610c6182611627565b9050919050565b610c70610f12565b80600e600084815260200190815260200160002060006101000a81548160ff0219169083151502179055505050565b6000600560008473ffffffffffffffffffffffffffffffffffffffff1673ffffffffffffffffffffffffffffffffffffffff16815260200190815260200160002060008373ffffffffffffffffffffffffffffffffffffffff1673ffffffffffffffffffffffffffffffffffffffff16815260200190815260200160002060009054906101000a900460ff16905092915050565b610d3b610f12565b600073ffffffffffffffffffffffffffffffffffffffff168173ffffffffffffffffffffffffffffffffffffffff1603610dad5760006040517f1e4fbdf7000000000000000000000000000000000000000000000000000000008152600401610da49190612758565b60405180910390fd5b610db681611148565b50565b60007f780e9d63000000000000000000000000000000000000000000000000000000007bffffffffffffffffffffffffffffffffffffffffffffffffffffffff1916827bffffffffffffffffffffffffffffffffffffffffffffffffffffffff19161480610e2c5750610e2b8261173a565b5b9050919050565b600080610e3f8361179b565b9050600073ffffffffffffffffffffffffffffffffffffffff168173ffffffffffffffffffffffffffffffffffffffff1603610eb257826040517f7e273289000000000000000000000000000000000000000000000000000000008152600401610ea9919061297f565b60405180910390fd5b80915050919050565b60006004600083815260200190815260200160002060009054906101000a900473ffffffffffffffffffffffffffffffffffffffff169050919050565b600033905090565b610f0d83838360016117d8565b505050565b610f1a610ef8565b73ffffffffffffffffffffffffffffffffffffffff16610f38610a92565b73ffffffffffffffffffffffffffffffffffffffff1614610f9757610f5b610ef8565b6040517f118cdaa7000000000000000000000000000000000000000000000000000000008152600401610f8e9190612758565b60405180910390fd5b565b80600660008481526020019081526020016000209081610fb99190613033565b507ff8e1a15aba9398e019f0b49df1a4fde98ee17ae345cb5f6b5e2c27f5033e8ce782604051610fe9919061297f565b60405180910390a15050565b6000806110018461179b565b9050600073ffffffffffffffffffffffffffffffffffffffff168173ffffffffffffffffffffffffffffffffffffffff161415801561106d5750600073ffffffffffffffffffffffffffffffffffffffff168573ffffffffffffffffffffffffffffffffffffffff1614155b156110ad576040517f08c379a00000000000000000000000000000000000000000000000000000000081526004016110a490613177565b60405180910390fd5b6110b885858561199d565b9150509392505050565b60006110d16000836000610ff5565b9050600073ffffffffffffffffffffffffffffffffffffffff168173ffffffffffffffffffffffffffffffffffffffff160361114457816040517f7e27328900000000000000000000000000000000000000000000000000000000815260040161113b919061297f565b60405180910390fd5b5050565b6000600b60009054906101000a900473ffffffffffffffffffffffffffffffffffffffff16905081600b60006101000a81548173ffffffffffffffffffffffffffffffffffffffff021916908373ffffffffffffffffffffffffffffffffffffffff1602179055508173ffffffffffffffffffffffffffffffffffffffff168173ffffffffffffffffffffffffffffffffffffffff167f8be0079c531659141344cd1fd0a4f28419497f9722a3daafe3b4186f6b6457e060405160405180910390a35050565b600073ffffffffffffffffffffffffffffffffffffffff168273ffffffffffffffffffffffffffffffffffffffff16036112805760006040517f64a0ae920000000000000000000000000000000000000000000000000000000081526004016112779190612758565b60405180910390fd5b600061128e83836000610ff5565b9050600073ffffffffffffffffffffffffffffffffffffffff168173ffffffffffffffffffffffffffffffffffffffff16146113025760006040517f73c6ac6e0000000000000000000000000000000000000000000000000000000081526004016112f99190612758565b60405180910390fd5b505050565b600073ffffffffffffffffffffffffffffffffffffffff168273ffffffffffffffffffffffffffffffffffffffff160361137857816040517f5b08ba1800000000000000000000000000000000000000000000000000000000815260040161136f9190612758565b60405180910390fd5b80600560008573ffffffffffffffffffffffffffffffffffffffff1673ffffffffffffffffffffffffffffffffffffffff16815260200190815260200160002060008473ffffffffffffffffffffffffffffffffffffffff1673ffffffffffffffffffffffffffffffffffffffff16815260200190815260200160002060006101000a81548160ff0219169083151502179055508173ffffffffffffffffffffffffffffffffffffffff168373ffffffffffffffffffffffffffffffffffffffff167f17307eab39ab6107e8899845ad3d59bd9653f200f220920489ca2b5937696c318360405161146991906125e7565b60405180910390a3505050565b60008373ffffffffffffffffffffffffffffffffffffffff163b1115611620578273ffffffffffffffffffffffffffffffffffffffff1663150b7a02868685856040518563ffffffff1660e01b81526004016114d594939291906131ec565b6020604051808303816000875af192505050801561151157506040513d601f19601f8201168201806040525081019061150e919061324d565b60015b611595573d8060008114611541576040519150601f19603f3d011682016040523d82523d6000602084013e611546565b606091505b50600081510361158d57836040517f64a0ae920000000000000000000000000000000000000000000000000000000081526004016115849190612758565b60405180910390fd5b805181602001fd5b63150b7a0260e01b7bffffffffffffffffffffffffffffffffffffffffffffffffffffffff1916817bffffffffffffffffffffffffffffffffffffffffffffffffffffffff19161461161e57836040517f64a0ae920000000000000000000000000000000000000000000000000000000081526004016116159190612758565b60405180910390fd5b505b5050505050565b606061163282610e33565b50600060066000848152602001908152602001600020805461165390612ce4565b80601f016020809104026020016040519081016040528092919081815260200182805461167f90612ce4565b80156116cc5780601f106116a1576101008083540402835291602001916116cc565b820191906000526020600020905b8154815290600101906020018083116116af57829003601f168201915b5050505050905060006116dd611aba565b905060008151036116f2578192505050611735565b60008251111561172757808260405160200161170f9291906132b6565b60405160208183030381529060405292505050611735565b61173084611ad1565b925050505b919050565b6000634906490660e01b7bffffffffffffffffffffffffffffffffffffffffffffffffffffffff1916827bffffffffffffffffffffffffffffffffffffffffffffffffffffffff19161480611794575061179382611b3a565b5b9050919050565b60006002600083815260200190815260200160002060009054906101000a900473ffffffffffffffffffffffffffffffffffffffff169050919050565b80806118115750600073ffffffffffffffffffffffffffffffffffffffff168273ffffffffffffffffffffffffffffffffffffffff1614155b1561194557600061182184610e33565b9050600073ffffffffffffffffffffffffffffffffffffffff168373ffffffffffffffffffffffffffffffffffffffff161415801561188c57508273ffffffffffffffffffffffffffffffffffffffff168173ffffffffffffffffffffffffffffffffffffffff1614155b801561189f575061189d8184610c9f565b155b156118e157826040517fa9fbf51f0000000000000000000000000000000000000000000000000000000081526004016118d89190612758565b60405180910390fd5b811561194357838573ffffffffffffffffffffffffffffffffffffffff168273ffffffffffffffffffffffffffffffffffffffff167f8c5be1e5ebec7d5bd14f71427d1e84f3dd0314c0f7b2291e5b200ac8c7c3b92560405160405180910390a45b505b836004600085815260200190815260200160002060006101000a81548173ffffffffffffffffffffffffffffffffffffffff021916908373ffffffffffffffffffffffffffffffffffffffff16021790555050505050565b6000806119ab858585611c1c565b9050600073ffffffffffffffffffffffffffffffffffffffff168173ffffffffffffffffffffffffffffffffffffffff16036119ef576119ea84611e36565b611a2e565b8473ffffffffffffffffffffffffffffffffffffffff168173ffffffffffffffffffffffffffffffffffffffff1614611a2d57611a2c8185611e7f565b5b5b600073ffffffffffffffffffffffffffffffffffffffff168573ffffffffffffffffffffffffffffffffffffffff1603611a7057611a6b84611f6a565b611aaf565b8473ffffffffffffffffffffffffffffffffffffffff168173ffffffffffffffffffffffffffffffffffffffff1614611aae57611aad858561203b565b5b5b809150509392505050565b606060405180602001604052806000815250905090565b6060611adc82610e33565b506000611ae7611aba565b90506000815111611b075760405180602001604052806000815250611b32565b80611b11846120c6565b604051602001611b229291906132b6565b6040516020818303038152906040525b915050919050565b60007f80ac58cd000000000000000000000000000000000000000000000000000000007bffffffffffffffffffffffffffffffffffffffffffffffffffffffff1916827bffffffffffffffffffffffffffffffffffffffffffffffffffffffff19161480611c0557507f5b5e139f000000000000000000000000000000000000000000000000000000007bffffffffffffffffffffffffffffffffffffffffffffffffffffffff1916827bffffffffffffffffffffffffffffffffffffffffffffffffffffffff1916145b80611c155750611c1482612194565b5b9050919050565b600080611c288461179b565b9050600073ffffffffffffffffffffffffffffffffffffffff168373ffffffffffffffffffffffffffffffffffffffff1614611c6a57611c698184866121fe565b5b600073ffffffffffffffffffffffffffffffffffffffff168173ffffffffffffffffffffffffffffffffffffffff1614611cfb57611cac6000856000806117d8565b6001600360008373ffffffffffffffffffffffffffffffffffffffff1673ffffffffffffffffffffffffffffffffffffffff168152602001908152602001600020600082825403925050819055505b600073ffffffffffffffffffffffffffffffffffffffff168573ffffffffffffffffffffffffffffffffffffffff1614611d7e576001600360008773ffffffffffffffffffffffffffffffffffffffff1673ffffffffffffffffffffffffffffffffffffffff168152602001908152602001600020600082825401925050819055505b846002600086815260200190815260200160002060006101000a81548173ffffffffffffffffffffffffffffffffffffffff021916908373ffffffffffffffffffffffffffffffffffffffff160217905550838573ffffffffffffffffffffffffffffffffffffffff168273ffffffffffffffffffffffffffffffffffffffff167fddf252ad1be2c89b69c2b068fc378daa952ba7f163c4a11628f55a4df523b3ef60405160405180910390a4809150509392505050565b600980549050600a600083815260200190815260200160002081905550600981908060018154018082558091505060019003906000526020600020016000909190919091505550565b6000611e8a836108cb565b90506000600860008481526020019081526020016000205490506000600760008673ffffffffffffffffffffffffffffffffffffffff1673ffffffffffffffffffffffffffffffffffffffff1681526020019081526020016000209050828214611f365760008160008581526020019081526020016000205490508082600085815260200190815260200160002081905550826008600083815260200190815260200160002081905550505b6008600085815260200190815260200160002060009055806000848152602001908152602001600020600090555050505050565b60006001600980549050611f7e91906132da565b90506000600a6000848152602001908152602001600020549050600060098381548110611fae57611fad612d75565b5b906000526020600020015490508060098381548110611fd057611fcf612d75565b5b906000526020600020018190555081600a600083815260200190815260200160002081905550600a600085815260200190815260200160002060009055600980548061201f5761201e61330e565b5b6001900381819060005260206000200160009055905550505050565b60006001612048846108cb565b61205291906132da565b905081600760008573ffffffffffffffffffffffffffffffffffffffff1673ffffffffffffffffffffffffffffffffffffffff168152602001908152602001600020600083815260200190815260200160002081905550806008600084815260200190815260200160002081905550505050565b6060600060016120d5846122c2565b01905060008167ffffffffffffffff8111156120f4576120f36127e9565b5b6040519080825280601f01601f1916602001820160405280156121265781602001600182028036833780820191505090505b509050600082602001820190505b600115612189578080600190039150507f3031323334353637383961626364656600000000000000000000000000000000600a86061a8153600a858161217d5761217c61333d565b5b04945060008503612134575b819350505050919050565b60007f01ffc9a7000000000000000000000000000000000000000000000000000000007bffffffffffffffffffffffffffffffffffffffffffffffffffffffff1916827bffffffffffffffffffffffffffffffffffffffffffffffffffffffff1916149050919050565b612209838383612415565b6122bd57600073ffffffffffffffffffffffffffffffffffffffff168373ffffffffffffffffffffffffffffffffffffffff160361227e57806040517f7e273289000000000000000000000000000000000000000000000000000000008152600401612275919061297f565b60405180910390fd5b81816040517f177e802f0000000000000000000000000000000000000000000000000000000081526004016122b4929190612d4c565b60405180910390fd5b505050565b600080600090507a184f03e93ff9f4daa797ed6e38ed64bf6a1f0100000000000000008310612320577a184f03e93ff9f4daa797ed6e38ed64bf6a1f01000000000000000083816123165761231561333d565b5b0492506040810190505b6d04ee2d6d415b85acef8100000000831061235d576d04ee2d6d415b85acef810000000083816123535761235261333d565b5b0492506020810190505b662386f26fc10000831061238c57662386f26fc1000083816123825761238161333d565b5b0492506010810190505b6305f5e10083106123b5576305f5e10083816123ab576123aa61333d565b5b0492506008810190505b61271083106123da5761271083816123d0576123cf61333d565b5b0492506004810190505b606483106123fd57606483816123f3576123f261333d565b5b0492506002810190505b600a831061240c576001810190505b80915050919050565b60008073ffffffffffffffffffffffffffffffffffffffff168373ffffffffffffffffffffffffffffffffffffffff16141580156124cd57508273ffffffffffffffffffffffffffffffffffffffff168473ffffffffffffffffffffffffffffffffffffffff16148061248e575061248d8484610c9f565b5b806124cc57508273ffffffffffffffffffffffffffffffffffffffff166124b483610ebb565b73ffffffffffffffffffffffffffffffffffffffff16145b5b90509392505050565b5080546124e290612ce4565b6000825580601f106124f45750612513565b601f0160209004906000526020600020908101906125129190612516565b5b50565b5b8082111561252f576000816000905550600101612517565b5090565b6000604051905090565b600080fd5b600080fd5b60007fffffffff0000000000000000000000000000000000000000000000000000000082169050919050565b61257c81612547565b811461258757600080fd5b50565b60008135905061259981612573565b92915050565b6000602082840312156125b5576125b461253d565b5b60006125c38482850161258a565b91505092915050565b60008115159050919050565b6125e1816125cc565b82525050565b60006020820190506125fc60008301846125d8565b92915050565b600081519050919050565b600082825260208201905092915050565b60005b8381101561263c578082015181840152602081019050612621565b60008484015250505050565b6000601f19601f8301169050919050565b600061266482612602565b61266e818561260d565b935061267e81856020860161261e565b61268781612648565b840191505092915050565b600060208201905081810360008301526126ac8184612659565b905092915050565b6000819050919050565b6126c7816126b4565b81146126d257600080fd5b50565b6000813590506126e4816126be565b92915050565b600060208284031215612700576126ff61253d565b5b600061270e848285016126d5565b91505092915050565b600073ffffffffffffffffffffffffffffffffffffffff82169050919050565b600061274282612717565b9050919050565b61275281612737565b82525050565b600060208201905061276d6000830184612749565b92915050565b61277c81612737565b811461278757600080fd5b50565b60008135905061279981612773565b92915050565b600080604083850312156127b6576127b561253d565b5b60006127c48582860161278a565b92505060206127d5858286016126d5565b9150509250929050565b600080fd5b600080fd5b7f4e487b7100000000000000000000000000000000000000000000000000000000600052604160045260246000fd5b61282182612648565b810181811067ffffffffffffffff821117156128405761283f6127e9565b5b80604052505050565b6000612853612533565b905061285f8282612818565b919050565b600067ffffffffffffffff82111561287f5761287e6127e9565b5b61288882612648565b9050602081019050919050565b82818337600083830152505050565b60006128b76128b284612864565b612849565b9050828152602081018484840111156128d3576128d26127e4565b5b6128de848285612895565b509392505050565b600082601f8301126128fb576128fa6127df565b5b813561290b8482602086016128a4565b91505092915050565b6000806040838503121561292b5761292a61253d565b5b6000612939858286016126d5565b925050602083013567ffffffffffffffff81111561295a57612959612542565b5b612966858286016128e6565b9150509250929050565b612979816126b4565b82525050565b60006020820190506129946000830184612970565b92915050565b6000806000606084860312156129b3576129b261253d565b5b60006129c18682870161278a565b93505060206129d28682870161278a565b92505060406129e3868287016126d5565b9150509250925092565b600060208284031215612a0357612a0261253d565b5b6000612a118482850161278a565b91505092915050565b600080600060608486031215612a3357612a3261253d565b5b6000612a418682870161278a565b935050602084013567ffffffffffffffff811115612a6257612a61612542565b5b612a6e868287016128e6565b925050604084013567ffffffffffffffff811115612a8f57612a8e612542565b5b612a9b868287016128e6565b9150509250925092565b612aae816125cc565b8114612ab957600080fd5b50565b600081359050612acb81612aa5565b92915050565b60008060408385031215612ae857612ae761253d565b5b6000612af68582860161278a565b9250506020612b0785828601612abc565b9150509250929050565b600067ffffffffffffffff821115612b2c57612b2b6127e9565b5b612b3582612648565b9050602081019050919050565b6000612b55612b5084612b11565b612849565b905082815260208101848484011115612b7157612b706127e4565b5b612b7c848285612895565b509392505050565b600082601f830112612b9957612b986127df565b5b8135612ba9848260208601612b42565b91505092915050565b60008060008060808587031215612bcc57612bcb61253d565b5b6000612bda8782880161278a565b9450506020612beb8782880161278a565b9350506040612bfc878288016126d5565b925050606085013567ffffffffffffffff811115612c1d57612c1c612542565b5b612c2987828801612b84565b91505092959194509250565b60008060408385031215612c4c57612c4b61253d565b5b6000612c5a858286016126d5565b9250506020612c6b85828601612abc565b9150509250929050565b60008060408385031215612c8c57612c8b61253d565b5b6000612c9a8582860161278a565b9250506020612cab8582860161278a565b9150509250929050565b7f4e487b7100000000000000000000000000000000000000000000000000000000600052602260045260246000fd5b60006002820490506001821680612cfc57607f821691505b602082108103612d0f57612d0e612cb5565b5b50919050565b6000606082019050612d2a6000830186612749565b612d376020830185612970565b612d446040830184612749565b949350505050565b6000604082019050612d616000830185612749565b612d6e6020830184612970565b9392505050565b7f4e487b7100000000000000000000000000000000000000000000000000000000600052603260045260246000fd5b7f526563697069656e7420616c726561647920686173206120746f6b656e000000600082015250565b6000612dda601d8361260d565b9150612de582612da4565b602082019050919050565b60006020820190508181036000830152612e0981612dcd565b9050919050565b7f4e487b7100000000000000000000000000000000000000000000000000000000600052601160045260246000fd5b6000612e4a826126b4565b91507fffffffffffffffffffffffffffffffffffffffffffffffffffffffffffffffff8203612e7c57612e7b612e10565b5b600182019050919050565b60008190508160005260206000209050919050565b60006020601f8301049050919050565b600082821b905092915050565b600060088302612ee97fffffffffffffffffffffffffffffffffffffffffffffffffffffffffffffffff82612eac565b612ef38683612eac565b95508019841693508086168417925050509392505050565b6000819050919050565b6000612f30612f2b612f26846126b4565b612f0b565b6126b4565b9050919050565b6000819050919050565b612f4a83612f15565b612f5e612f5682612f37565b848454612eb9565b825550505050565b600090565b612f73612f66565b612f7e818484612f41565b505050565b5b81811015612fa257612f97600082612f6b565b600181019050612f84565b5050565b601f821115612fe757612fb881612e87565b612fc184612e9c565b81016020851015612fd0578190505b612fe4612fdc85612e9c565b830182612f83565b50505b505050565b600082821c905092915050565b600061300a60001984600802612fec565b1980831691505092915050565b60006130238383612ff9565b9150826002028217905092915050565b61303c82612602565b67ffffffffffffffff811115613055576130546127e9565b5b61305f8254612ce4565b61306a828285612fa6565b600060209050601f83116001811461309d576000841561308b578287015190505b6130958582613017565b8655506130fd565b601f1984166130ab86612e87565b60005b828110156130d3578489015182556001820191506020850194506020810190506130ae565b868310156130f057848901516130ec601f891682612ff9565b8355505b6001600288020188555050505b505050505050565b7f546f6b656e732061726520736f756c626f756e6420616e642063616e6e6f742060008201527f6265207472616e73666572726564000000000000000000000000000000000000602082015250565b6000613161602e8361260d565b915061316c82613105565b604082019050919050565b6000602082019050818103600083015261319081613154565b9050919050565b600081519050919050565b600082825260208201905092915050565b60006131be82613197565b6131c881856131a2565b93506131d881856020860161261e565b6131e181612648565b840191505092915050565b60006080820190506132016000830187612749565b61320e6020830186612749565b61321b6040830185612970565b818103606083015261322d81846131b3565b905095945050505050565b60008151905061324781612573565b92915050565b6000602082840312156132635761326261253d565b5b600061327184828501613238565b91505092915050565b600081905092915050565b600061329082612602565b61329a818561327a565b93506132aa81856020860161261e565b80840191505092915050565b60006132c28285613285565b91506132ce8284613285565b91508190509392505050565b60006132e5826126b4565b91506132f0836126b4565b925082820390508181111561330857613307612e10565b5b92915050565b7f4e487b7100000000000000000000000000000000000000000000000000000000600052603160045260246000fd5b7f4e487b7100000000000000000000000000000000000000000000000000000000600052601260045260246000fdfea264697066735822122046f2eb981fe9cf0bcc421d72ecd6bc1537520626930c029422aec20735b4375964736f6c634300081c0033",
  "linkReferences": {},
  "deployedLinkReferences": {}
}